:100000000C9446000C9465000C9465000C946500FB
:100010000C9465000C9465000C9465000C946500CC
:100020000C9465000C9465000C9465000C946500BC
:100030000C9465000C9465000C9465000C946500AC
:100040000C9465000C9465000C9465000C9465009C
:100050000C9465000C9465000C9465000C9465008C
:100060000C9465000C9465000C9465000C9465007C
:100070000C9465000C9465000C9465000C9465006C
:100080000C9465000C9465000C94650011241FBE4F
:10009000CFEFD0E4DEBFCDBF11E0A0E0B1E0ECE2F5
:1000A000F2E000E00BBF02C007900D92A031B10753
:1000B000D9F711E0A0E1B1E001C01D92A231B10772
:1000C000E1F70E94FB000C9414010C940000CF9304
:1000D000DF9300D01F92CDB7DEB789837B836A831D
:1000E00089818A3031F48A819B81BC018DE00E9434
:1000F000670080EC90E0FC018081882F90E08072A6
:1001000099270097B1F386EC90E02981FC012083C8
:1001100080E090E00F900F900F90DF91CF910895C5
:10012000CF93DF93CDB7DEB780911001909111018D
:100130008130910589F08130910538F08230910548
:10014000E9F08330910509F132C081E090E09093AD
:100150001101809310012BC080E290E0FC018081AE
:10016000882F90E081709927009739F082E090E025
:1001700090931101809310011AC019C083E090E0A0
:10018000909311018093100112C080E290E0FC0175
:100190008081882F90E081709927009739F481E061
:1001A00090E0909311018093100100C000008091B5
:1001B0001001909111018230910509F019C08091D0
:1001C0000E01869580930E0180910E01882F90E09C
:1001D00083709927009729F480910E018E5F809398
:1001E0000E0185E290E020910E01FC0120830000C9
:1001F000DF91CF910895CF93DF93CDB7DEB781E242
:1002000090E0FC01108282E290E0FC01108284E226
:1002100090E023E0FC01208385E290E021E0FC01F6
:0C02200020830E949000FDCFF894FFCFD7
:10022C000000000200000000670000000000010058
:00000001FF
